:020000040800F2
:1000000000200020DD090008290A0008290A00084C
:1000100000000000000000000000000000000000E0
:10002000000000000000000000000000290A000895
:100030000000000000000000290A00085903000821
:10004000290A0008290A0008290A0008290A0008C4
:10005000290A0008290A0008290A0008290A0008B4
:10006000290A0008290A0008290A0008290A0008A4
:10007000290A0008290A0008290A0008290A000894
:10008000290A0008290A000800000000290A0008BF
:10009000290A0008290A0008290A0008290A000874
:1000A000290A0008290A0008290A0008290A000864
:1000B000290A000800000000290A000800000000CA
:1000C0005FF808F180B582B000AF78600A1CFB1CB5
:1000D0001A70FB1C1B78002B06D0084B074A51698D
:1000E0007A680A435A6106E0044B044A5269796807
:1000F000C9430A405A61BD4602B080BD00100240AB
:1001000080B582B000AF78600A1CFB1C1A70FB1C23
:100110001B78002B06D0084B074A91697A680A437E
:100120009A6106E0044B044A92697968C9430A401F
:100130009A61BD4602B080BD0010024080B584B017
:1001400000AF786039600023FB607B68DB68FB6090
:10015000FB680F4A1340FB603B681A683B681B79D9
:100160005B031A433B689B681A433B68DB681A438E
:100170003B681B691A433B685B691343FA68134386
:10018000FB607B68FA68DA60BD4604B080BDC0469B
:1001900003D2FFFF80B582B000AF78600A1CFB1C61
:1001A0001A70FB1C1B78002B06D07B689B68012211
:1001B0001A437B689A6005E07B689B6802221A43B9
:1001C0007B689A60BD4602B080BDC04680B586B0EF
:1001D00000AFF860B9607A6000237B61FB689A6ABF
:1001E000BB681A43FB689A627B69072293437B6171
:1001F0007A697B6813437B61FB687A695A61BD4603
:1002000006B080BD80B582B000AF78607B689B6827
:1002100004221A437B689A60BD4602B080BDC04686
:1002200080B582B000AF78607B681B6C9BB2181CF5
:10023000BD4602B080BDC046B0B582B000AF021C62
:100240003960FB1D1A70FB1D1B787F2B2FD92D4C9D
:10025000FB1D1B781A1C0F231340083B9908294AE1
:10026000FB1D1B78181C0F230340083B9B0806331B
:100270009B00D3185B68FA1D1278101C0322024001
:10028000D200101CFF228240D2431A403B689B01DF
:10029000FF200340F81D0078051C03202840C00003
:1002A00083401A438B1D9B00E3185A6026E0164CCE
:1002B000FB1D1B785BB29B081349FA1D127852B2E2
:1002C0009208C03292005258F91D0978081C032187
:1002D0000140C900081CFF218140C94311403A6810
:1002E0009201FF200240F81D0078051C03202840E1
:1002F000C00082400A43C0339B001A51BD4602B081
:10030000B0BDC04600ED00E000E100E080B582B085
:1003100000AF78607B680E4A934201D9012312E056
:100320000C4B7A681202120A013A5A6001235B42AE
:10033000181C0321FFF780FF064B00229A60054B33
:1003400007221A600023181CBD4602B080BDC046BB
:10035000FFFFFF0010E000E080B500AF294B181C44
:10036000FFF75EFF031C1A01274B1B68D31A274AAD
:1003700053431A14244B1B68D218234B1A60214B89
:10038000181CFFF73FFF224B1B780133DAB2204BDA
:100390001A701F4B1B78022B31D11D4B00221A7093
:1003A0001C4B1B78DBB2002B29D1174B1A681A4B58
:1003B0001B68D31A1A12184B1B68D218164B1A60F6
:1003C000164B1B88181C104B1A68134B1B68D31A4A
:1003D0001B1199B2124B4200D152104B1B880133B2
:1003E0009AB20E4B1A800D4B1A8880235B009A42FA
:1003F00005D10A4B00221A80064B01221A70BD4615
:1004000080BDC04600240140580C00209EBB000067
:100410005C0C0020540A0020040000205E0C002028
:10042000580A002080B586B000AF78601623FB180C
:1004300000221A801423FB181A4A1A8000233B61F9
:1004400025E00E23FB181622B9181422BA180988C1
:1004500012880A431A800E23FB181B880E22BA1832
:1004600012885343BB607A68BB689A4205D316234F
:10047000FB180E22BA1812881A801423FB181422B3
:10048000BA18128852081A803B6901333B613B69F4
:100490000F2BD6DD1623FB181B88181CBD4606B093
:1004A00080BDC0460080FFFF90B5E04CA54402AF80
:1004B00080239B02181C0121FFF704FE80239B0070
:1004C000181C0121FFF71CFED94B01221A60D84BE2
:1004D00003221A71D64B0022DA71D54B00229A7191
:1004E000D34B00225A719023DA05D14B101C191CF2
:1004F00002F090F8CF4B00221A71CE4B00221A6105
:10050000CC4B00229A60CB4B00221A60C94B0022D0
:100510005A61C94AC74B101C191CFFF70FFEC64B86
:10052000181C0121FFF736FEC34B181C01210122C4
:10053000FFF74CFEC04B181CFFF764FE00F076FA84
:10054000BE4B1B68181CBE4902F0E2FB031C181CC2
:10055000FFF7DCFE002399229200BA181360C04610
:10056000B84B1B78DBB2002BFAD0B74B1B78002BB3
:100570004CD100239B229200BA1813603FE09B23CA
:100580009B00FB181B687F2B17D8B04B9B22920057
:10059000BA1812685200D35A9BB21BB29B22920027
:1005A000BA18126853431B0A99B2A84B9B229200B7
:1005B000BA1812685200D15218E0A44B9B22920044
:1005C000BA1812685200D35A9BB21BB29B229200F7
:1005D000BA18126880218A1A53431B0A99B29B4B9E
:1005E0009B229200BA1812685200D1529B239B00A2
:1005F000FB181B6801339B229200BA1813609B23DF
:100600009B00FB181B68FF2BB9D940E08E4B1B7871
:10061000012B3CD100239B229200BA18136030E0DA
:1006200080231A1C9B239B00FB181B6853431B0A47
:1006300098229200BA181360844B9B229200BA1839
:1006400012685200D35A9BB21BB2814A982189008A
:100650007918096849008A5A12B25343102213418B
:1006600099B27A4B9B229200BA1812685200D1526A
:100670009B239B00FB181B6801339B229200BA1836
:1006800013609B239B00FB181B68FF2BC8D95423C6
:10069000FA1880239B00101C00211A1C03F0CAFCCE
:1006A0006A4A5423FB18101C191C0822002301F06D
:1006B00011FD00239A229200BA1813600023992298
:1006C0009200BA18136000239B229200BA1813609C
:1006D00022E15E4B9B229200BA1812685200D35A54
:1006E0009BB21BB2594A9B218900791809684900BD
:1006F0008A5A92B212B2534397229200BA181360E8
:10070000544B9C2292009446BC4463449B2292002A
:10071000BA1812685200D35A1BB24E4A9C21890063
:100720008C46BC4462449B218900791809684900C1
:100730008A5A12B2534396229200BA181360972332
:100740009B00FB181A6896239B00FB181B68D318A4
:10075000181CFFF767FE031C1A1C99239B00FB184B
:100760001B689B1899229200BA1813609B239B0068
:10077000FB181B6854225343DB0998229200BA18D5
:10078000136098239B00FB181A689A239B00FB18A0
:100790001B689A4200D1B6E00023002B60D0992359
:1007A0009B00FB18186803F0F5FA031C181C02F0F4
:1007B0004BF8031C181C284902F0D4FF031C1C1C16
:1007C000264B9C229200BA18D21898239B00FB1843
:1007D0001B68D3181B78181C03F094FA031C201C08
:1007E000191C03F0F1F8031C181C03F06BFA021C2F
:1007F00001231A41111C194B9C229200BA18D218DD
:1008000098239B00FB181B68D3181A78CBB2D31817
:10081000D9B2124B9C229200BA18D21898239B008E
:10082000FB181B68D3180A1C1A7046E084FDFFFFF2
:10083000780C0020600C0020002401400C060020F1
:1008400000770100540A002000000020580A002010
:10085000C4400008E4FDFFFF0000A04190FDFFFF41
:100860005B4B9C229200BA18D21898239B00FB186D
:100870001B68D3181A78564B9C2189007918C9181F
:1008800098239B00FB181B68CB181B78191C992315
:100890009B00FB181B685B1A0121CB40DBB2D3180D
:1008A000D9B24B4B9C229200BA18D21898239B00C5
:1008B000FB181B68D3180A1C1A70454B9C22920027
:1008C000BA18D21898239B00FB181B68D3181B7802
:1008D000262B0BD93E4B9C229200BA18D218982393
:1008E0009B00FB181B68D31826221A7098239B00C4
:1008F000FB181B689A229200BA18136000239922F1
:100900009200BA1813609B239B00FB181B680133ED
:100910009B229200BA1813609B239B00FB181B6854
:100920007F2B00D8D5E600F0BBFA002300933020DF
:1009300000210022002300F04BFB00230093002342
:100940000193182045210022002300F0E9FC021C3D
:10095000204BFB181A701F4BFB181B789BB21AB266
:10096000002300936B20111C0022002300F030FBB9
:1009700001239B229200BA1813601CE09B239B006A
:10098000FB181B68D9B2124B9C229200BA18D218DD
:100990009B239B00FB181B68D3181B78081C191C91
:1009A00001F03CFB9B239B00FB181B6801339B223F
:1009B0009200BA1813609B239B00FB181B68532BF3
:1009C000DCD900F039F9044B00221A70C7E5C046A3
:1009D00090FDFFFF57020000540A00200C48854696
:1009E000002103E00B4B5B58435004310A480B4B8A
:1009F00042189A42F6D30A4A02E0002313600432F6
:100A0000084B9A42F9D301F04FFDFFF74DFDFEE789
:100A1000002000209C45000800000020540A00200F
:100A2000540A00208C0E0020FEE7000080B500AFC5
:100A3000524B1B78012B5FD1504B00221A70802340
:100A40009B02181C0121FFF73DFB80235B01181C52
:100A50000121FFF755FB4A4B0E221A60484B012239
:100A60001A71474B00229A71454B01225A7190230B
:100A7000DA05434B101C191C01F0CCFD404BA022A1
:100A80001A603F4B02221A719023DA053C4B101C6E
:100A9000191C01F0BFFD9023DB05181C0521002265
:100AA00001F082FE9023DB05181C0721002201F0D3
:100AB0007BFE344B18229A81324B00221A81314B33
:100AC0000022DA802F4BE022D2009A802D4B0022A8
:100AD000DA812C4B822252005A802A4B80229200CB
:100AE0005A81294A274B101C191C00F0FDF8264B8F
:100AF000181C012100F07AF99023DB05181C0E2147
:100B000001F028FE322000F0D7F89023DB05181CF6
:100B1000022101F011FE9023DB05181C042101F0D5
:100B20000BFE642000F0C8F821200021012200F013
:100B30002DF806200021012200F028F813200021C2
:100B4000012200F023F8C1200021012200F01EF84C
:100B500020200021012200F019F88020002101222C
:100B600000F014F80C200021012200F00FF800F032
:100B700097F900F061F8BD4680BDC046080000202E
:100B8000780C0020800C00200030014090B583B02C
:100B900000AF041C081C111CFB1D221C1A70BB1D7D
:100BA000021C1A707B1D0A1C1A709023DA05BB1DEB
:100BB0001B78101C08211A1C01F0DAFD9023DB05BC
:100BC000181CA02101F0C6FD7B1D1B78002B05D051
:100BD0009023DB05181C042101F0BCFD154AFB1D08
:100BE0001B78101C191C00F021F9C046114B181C71
:100BF000802100F031F9031E012BF7D0C0460D4BC8
:100C0000181C022100F028F9031EF8D09023DB0500
:100C1000181CA02101F09EFD7B1D1B78002B05D028
:100C20009023DB05181C042101F086FDBD4603B0AE
:100C300090BDC0460030014080B582B000AF40207A
:100C400000210122FFF7A2FF802000210122FFF7EF
:100C50009DFF9023DB05181C042101F07BFDBB1DCB
:100C600000221A800DE0BB1D1B88124AD35C181CA1
:100C700001210022FFF78AFFBB1D1A88BB1D01322C
:100C80001A80BB1D1A88F823FF339A42EBD99023B0
:100C9000DB05181C042101F04FFD4020002101223A
:100CA000FFF774FF802000210122FFF76FFFBD4690
:100CB00002B080BD940C002080B584B000AF786095
:100CC0007B68084A53437B600023FB6002E0FB68BB
:100CD0000133FB60FA687B689A42F8D3BD4604B0E2
:100CE00080BDC0461027000080B584B000AF78609A
:100CF00039600E23FB1800221A800E23FB187A6835
:100D000012881A800E23FB180E22BA181188C122ED
:100D100092010A401A803B681A883B68DB891343BA
:100D20009AB23B68DB8813439AB23B681B89134332
:100D30009AB23B685B8913439AB23B689B89134321
:100D400099B20E23FB180E22BA1812880A431A8091
:100D50007B680E22BA1812881A800E23FB187A6854
:100D600092881A800E23FB180E22BA1812881D4989
:100D70000A401A803B6899880E23FB180E22BA1885
:100D800012880A431A807B680E22BA1812889A8049
:100D90003B681A8A7B681A820E23FB187A681288CD
:100DA0001A800E23FB180E22BA18128804218A43D7
:100DB0001A803B6859880E23FB180E22BA18128835
:100DC0000A431A807B680E22BA1812881A807B6840
:100DD0009B8B9BB2044A13409AB27B689A83BD46B0
:100DE00004B080BDFFF0FFFFFFF7FFFF80B582B0CA
:100DF00000AF78600A1CFB1C1A70FB1C1B78002BD0
:100E000008D07B681B889BB2402213439AB27B6850
:100E10001A8007E07B681B889BB2402293439AB2FA
:100E20007B681A80BD4602B080BDC04680B584B0E4
:100E300000AF78600A1CFB1C1A700023FB607B6803
:100E4000FB60FB680C33FB60FB68FA1C12781A70BD
:100E5000BD4604B080BDC04680B584B000AF7860A8
:100E60000A1CBB1C1A800F23FB1800221A707B6817
:100E70001B899BB2BA1C128813409BB2002B04D072
:100E80000F23FB1801221A7003E00F23FB18002226
:100E90001A700F23FB181B78181CBD4604B080BDC8
:100EA00080B500AF044AFC235B00101C00211A1C13
:100EB00003F0C0F8BD4680BD940C002090B585B00D
:100EC00000AF041C081C111CBB1D221C1A803B1DFA
:100ED000021C1A80FB1C0A1C1A70BB1D00229B5EA0
:100EE000532B0EDCBB1D00229B5E002B09DB3B1D40
:100EF00000229B5E2F2B04DC3B1D00229B5E002BFF
:100F000001DA01235CE03B1D00229B5EDB109BB2FB
:100F10009BB2542253439AB2BB1D1B88D3189AB27A
:100F20000C23FB181A800C23FB1800229A5E0F2357
:100F3000FB1825498A5C1A70FB1C1B78002B19D101
:100F40003B1D00229B5E214A134004D5013B082231
:100F50005242134301339BB21BB201229A40131C2D
:100F6000DAB20F23FB181B781343DAB20F23FB18F6
:100F70001A701BE03B1D00229B5E144A134004D5EF
:100F8000013B08225242134301339BB21BB20122A0
:100F90009A40131CDBB2DB43D9B20F23FB181A783B
:100FA0000B1C1340DAB20F23FB181A700C23FB182A
:100FB00000229B5E044A0F2179180978D15400233E
:100FC000181CBD4605B090BD940C002007000080A1
:100FD000B0B584B000AF051C0C1C101C191CBB1D47
:100FE0002A1C1A803B1D221C1A80BB1C021C1A8062
:100FF0007B1C0A1C1A70BB1DBA1D1288203A1A806D
:10100000BA1DBB1D1B88191C8900CB1813807B1CC3
:101010001B78012B00D17DE0022B00D1F1E0002BE9
:1010200000D06DE10E23FB1800221A806BE0BB1D7F
:101030001A880E23FB181B88D318B84AD25C0A23DF
:10104000FB181A800C23FB1800221A804FE00A2399
:10105000FB181A880C23FB181B881A41131C012249
:1010600013401FD03B1D1A880E23FB181B88D31872
:101070009BB298B2BB1C1A880C23FB181B88D31890
:101080009BB299B22023FB181B78013B5A42534173
:10109000DBB21C1C02B20BB2101C191C221CFFF785
:1010A0000DFF1DE03B1D1A880E23FB181B88D3186B
:1010B0009BB298B2BB1C1A880C23FB181B88D31850
:1010C0009BB299B22023FB181B785A425341DBB2E2
:1010D0001C1C02B20BB2101C191C221CFFF7EEFEE6
:1010E0000C23FB181A880C23FB1801321A800C23DE
:1010F000FB181B88072BAAD90E23FB181A880E236E
:10110000FB1801321A800E23FB181B88042B00D811
:101110008DE7F5E00E23FB1800221A806AE00C230D
:10112000FB1800221A8059E0BB1D1B880E22BA183A
:101130001288520892B29B18784AD35C1A1C0C236E
:10114000FB181B885B089BB21A41131C0122134039
:101150001FD03B1D1A880E23FB181B88D3189BB287
:1011600098B2BB1C1A880C23FB181B88D3189BB29F
:1011700099B22023FB181B78013B5A425341DBB242
:101180001C1C02B20BB2101C191C221CFFF796FE8D
:101190001DE03B1D1A880E23FB181B88D3189BB239
:1011A00098B2BB1C1A880C23FB181B88D3189BB25F
:1011B00099B22023FB181B785A425341DBB21C1C06
:1011C00002B20BB2101C191C221CFFF777FE0C2375
:1011D000FB181A880C23FB1801321A800C23FB1809
:1011E0001B880F2BA0D90E23FB181A880E23FB187F
:1011F00001321A800E23FB181B88092B00D88EE7BA
:101200007EE00E23FB1800221A8072E00C23FB18EC
:1012100000221A8061E0BB1D1C880E23FB181B886E
:10122000181C032101F074FD031C9BB2E3183B4A18
:10123000D35C1C1C0C23FB181B88181C032101F019
:1012400067FD031C9BB21C41231C012213401FD0CD
:101250003B1D1A880E23FB181B88D3189BB298B22B
:10126000BB1C1A880C23FB181B88D3189BB299B29D
:101270002023FB181B78013B5A425341DBB21C1C54
:1012800002B20BB2101C191C221CFFF717FE1DE046
:101290003B1D1A880E23FB181B88D3189BB298B2EB
:1012A000BB1C1A880C23FB181B88D3189BB299B25D
:1012B0002023FB181B785A425341DBB21C1C02B29C
:1012C0000BB2101C191C221CFFF7F8FD0C23FB1895
:1012D0001A880C23FB1801321A800C23FB181B8878
:1012E000172B98D90E23FB181A880E23FB180132EE
:1012F0001A800E23FB181B880E2B00D886E7C046E9
:101300003B1D0021595E7B1C1B785A1C131C9B0043
:101310009B18CB18181CBD4604B0B0BDC8410008CE
:1013200090B58BB002AFF8600C1C101C191C0A237E
:10133000FB18221C1A800823FB18021C1A80FB1DB4
:101340000A1C1A701E23FB1800221A701F23FB1898
:1013500000221A700DE01F23FB181B781022BA1808
:101360000021D1541F23FB181A781F23FB180132C8
:101370001A701F23FB181B78082BECD90A23FB18C3
:1013800000229B5E002B03DA02235B4200F048FD43
:10139000FB68002B07DAFB685B42FB601D23FB1830
:1013A00001221A7006E0FB68002B03DD1D23FB18E9
:1013B00000221A70FB68092B0BDCFB68DBB23033B0
:1013C000DAB21023FB181A701E23FB1801221A70C0
:1013D000FAE2FB68632B1CDCFB68181C0A2101F095
:1013E00027FD031CDBB23033DAB21023FB181A706E
:1013F000FB68181C0A2101F001FE0B1CDBB2303324
:10140000DAB21023FB185A701E23FB1802221A703E
:10141000DAE2FB68D34A93422DDCFB68181C642196
:1014200001F006FD031CDBB23033DAB21023FB18E7
:101430001A70FB68181C0A2101F0FAFC031C181C26
:101440000A2101F0DBFD0B1CDBB23033DAB21023D2
:10145000FB185A70FB68181C0A2101F0CFFD0B1C09
:10146000DBB23033DAB21023FB189A701E23FB185C
:1014700003221A70A8E2FB68BB4A93423FDCFB6878
:10148000181CFA23990001F0D3FC031CDBB23033A3
:10149000DAB21023FB181A70FB68181C642101F0E3
:1014A000C7FC031C181C0A2101F0A8FD0B1CDBB2B1
:1014B0003033DAB21023FB185A70FB68181C0A216B
:1014C00001F0B6FC031C181C0A2101F097FD0B1C4F
:1014D000DBB23033DAB21023FB189A70FB68181CA9
:1014E0000A2101F08BFD0B1CDBB23033DAB2102382
:1014F000FB18DA701E23FB1804221A7064E2FB68E2
:101500009A4A934250DCFB68181C994901F090FC00
:10151000031CDBB23033DAB21023FB181A70FB68FD
:10152000181CFA23990001F083FC031C181C0A21E3
:1015300001F064FD0B1CDBB23033DAB21023FB1870
:101540005A70FB68181C642101F072FC031C181C03
:101550000A2101F053FD0B1CDBB23033DAB2102349
:10156000FB189A70FB68181C0A2101F061FC031C2F
:10157000181C0A2101F042FD0B1CDBB23033DAB239
:101580001023FB18DA70FB68181C0A2101F036FDE5
:101590000B1CDBB23033DAB21023FB181A711E2396
:1015A000FB1805221A700FE2FB68724A934261DC55
:1015B000FB68181C704901F03BFC031CDBB23033A4
:1015C000DAB21023FB181A70FB68181C684901F086
:1015D0002FFC031C181C0A2101F010FD0B1CDBB2B0
:1015E0003033DAB21023FB185A70FB68181CFA2348
:1015F000990001F01DFC031C181C0A2101F0FEFCDF
:101600000B1CDBB23033DAB21023FB189A70FB6884
:10161000181C642101F00CFC031C181C0A2101F0A9
:10162000EDFC0B1CDBB23033DAB21023FB18DA709E
:10163000FB68181C0A2101F0FBFB031C181C0A2183
:1016400001F0DCFC0B1CDBB23033DAB21023FB18E8
:101650001A71FB68181C0A2101F0D0FC0B1CDBB2CC
:101660003033DAB21023FB185A711E23FB180622FE
:101670001A70A9E1FB68414A934200DD82E0FB68F1
:10168000181C3F4901F0D4FB031CDBB23033DAB243
:101690001023FB181A70FB68181C374901F0C8FBAF
:1016A000031C181C0A2101F0A9FC0B1CDBB230330F
:1016B000DAB21023FB185A70FB68181C2C4901F091
:1016C000B7FB031C181C0A2101F098FC0B1CDBB2B1
:1016D0003033DAB21023FB189A70FB68181CFA2317
:1016E000990001F0A5FB031C181C0A2101F086FCDF
:1016F0000B1CDBB23033DAB21023FB18DA70FB6854
:10170000181C642101F094FB031C181C0A2101F031
:1017100075FC0B1CDBB23033DAB21023FB181A71E4
:10172000FB68181C0A2101F083FB031C181C0A210A
:1017300001F064FC0B1CDBB23033DAB21023FB186F
:101740005A71FB68181C0A2101F058FC0B1CDBB213
:101750003033DAB21023FB189A711E23FB180722CC
:101760001A7031E1E70300000F2700009F86010097
:10177000102700003F420F00A08601007F969800CE
:1017800040420F00FB68D94A934200DD83E0FB68CA
:10179000181CD74901F04CFB031CDBB23033DAB222
:1017A0001023FB181A70FB68181CD24901F040FB8B
:1017B000031C181C0A2101F021FC0B1CDBB2303386
:1017C000DAB21023FB185A70FB68181CCA4901F0E2
:1017D0002FFB031C181C0A2101F010FC0B1CDBB2B0
:1017E0003033DAB21023FB189A70FB68181CC34917
:1017F00001F01EFB031C181C0A2101F0FFFB0B1C4F
:10180000DBB23033DAB21023FB18DA70FB68181C35
:10181000FA23990001F00CFB031C181C0A2101F0AB
:10182000EDFB0B1CDBB23033DAB21023FB181A715C
:10183000FB68181C642101F0FBFA031C181C0A2128
:1018400001F0DCFB0B1CDBB23033DAB21023FB18E7
:101850005A71FB68181C0A2101F0EAFA031C181CD3
:101860000A2101F0CBFB0B1CDBB23033DAB21023C0
:10187000FB189A71FB68181C0A2101F0BFFB0B1CB6
:10188000DBB23033DAB21023FB18DA711E23FB18F7
:1018900008221A7098E0FB68994A934200DD93E0B1
:1018A000FB68181C974901F0C3FA031CDBB2303304
:1018B000DAB21023FB181A70FB68181C8C4901F06F
:1018C000B7FA031C181C0A2101F098FB0B1CDBB2B1
:1018D0003033DAB21023FB185A70FB68181C8549A4
:1018E00001F0A6FA031C181C0A2101F087FB0B1C4F
:1018F000DBB23033DAB21023FB189A70FB68181C85
:101900007D4901F095FA031C181C0A2101F076FBB1
:101910000B1CDBB23033DAB21023FB18DA70FB6831
:10192000181C764901F084FA031C181C0A2101F0E6
:1019300065FB0B1CDBB23033DAB21023FB181A71D3
:10194000FB68181CFA23990001F072FA031C181C9A
:101950000A2101F053FB0B1CDBB23033DAB2102347
:10196000FB185A71FB68181C642101F061FA031C12
:10197000181C0A2101F042FB0B1CDBB23033DAB237
:101980001023FB189A71FB68181C0A2101F050FA09
:10199000031C181C0A2101F031FB0B1CDBB2303395
:1019A000DAB21023FB18DA71FB68181C0A2101F067
:1019B00025FB0B1CDBB23033DAB21023FB181A7292
:1019C0001E23FB1809221A70FB68092B05DDFB1D7D
:1019D0001B78013BDAB2FB1D1A70FB68632B05DD37
:1019E000FB1D1B78023BDAB2FB1D1A70FB68464AEE
:1019F000934205DDFB1D1B78033BDAB2FB1D1A7019
:101A0000FB68424A934205DDFB1D1B78043BDAB2BA
:101A1000FB1D1A70FB683E4A934205DDFB1D1B78D7
:101A2000053BDAB2FB1D1A70FB683A4A934205DDAA
:101A3000FB1D1B78063BDAB2FB1D1A70FB68364AA9
:101A4000934205DDFB1D1B78073BDAB2FB1D1A70C4
:101A5000FB1D1B787F2B02D9FB1D00221A7030233F
:101A6000FB181B78012B00D1B2E0022B00D141E121
:101A7000002B00D0D0E10A23FB180021595E1E2361
:101A8000FB181A78131C9B079B1A9B009B1A543354
:101A9000994205DC0823FB1800229B5E282B02DDFF
:101AA00001235B42BCE11D23FB181B78012B17D1DE
:101AB0000A23FB180021595E0823FB1800229A5EB6
:101AC0003423FB181B7800932D200023FFF780FAA6
:101AD0000A23FB181B8805339AB20A23FB181A80C5
:101AE0001F23FB1800221A7037E0C046FFE0F505FF
:101AF0008096980040420F00A08601001027000049
:101B0000FFC99A3B00E1F505E70300000F2700003D
:101B10009F8601003F420F007F9698000A23FB1822
:101B20000021595E0823FB1800229A5E3423FB181B
:101B30001B78009330200023FFF74AFA0A23FB1892
:101B40001B8805339AB20A23FB181A801F23FB183F
:101B50001A781F23FB1801321A701F23FB181A78FA
:101B6000FB1D1B785BB29A42D8DB1F23FB180022B7
:101B70001A7024E01F23FB181B781022BA18D35CBC
:101B800098B20A23FB180021595E0823FB18002293
:101B90009A5E3423FB181B7800930023FFF718FA92
:101BA0000A23FB181B8805339AB20A23FB181A80F4
:101BB0001F23FB181A781F23FB1801321A701F23EA
:101BC000FA181E23FB1812781B789A42D2D323E10D
:101BD0000A23FB1800229A5E1E23FB181B780A2199
:101BE00049424B4354339A4205DC0823FB18002238
:101BF0009B5E202B02DD01235B4211E11D23FB18BC
:101C00001B78012B17D10A23FB180021595E0823EA
:101C1000FB1800229A5E3423FB181B7800932D20BA
:101C20000123FFF7D5F90A23FB181B880A339AB260
:101C30000A23FB181A801F23FB1800221A701EE0CB
:101C40000A23FB180021595E0823FB1800229A5E24
:101C50003423FB181B78009330200123FFF7B8F9D9
:101C60000A23FB181B880A339AB20A23FB181A802E
:101C70001F23FB181A781F23FB1801321A701F2329
:101C8000FB181A78FB1D1B785BB29A42D8DB1F2326
:101C9000FB1800221A7024E01F23FB181B78102267
:101CA000BA18D35C98B20A23FB180021595E0823A6
:101CB000FB1800229A5E3423FB181B780093012343
:101CC000FFF786F90A23FB181B880A339AB20A2306
:101CD000FB181A801F23FB181A781F23FB180132E8
:101CE0001A701F23FA181E23FB1812781B789A42C9
:101CF000D2D391E00A23FB1800229A5E1E23FB1820
:101D00001B78191C1B01CB1A54339A4205DC08239B
:101D1000FB1800229B5E182B02DD01235B427FE053
:101D20001D23FB181B78012B17D10A23FB18002158
:101D3000595E0823FB1800229A5E3423FB181B7897
:101D400000932D200223FFF743F90A23FB181B8879
:101D50000F339AB20A23FB181A801F23FB180022A4
:101D60001A701EE00A23FB180021595E0823FB1895
:101D700000229A5E3423FB181B7800933020022344
:101D8000FFF726F90A23FB181B880F339AB20A23A0
:101D9000FB181A801F23FB181A781F23FB18013227
:101DA0001A701F23FB181A78FB1D1B785BB29A422E
:101DB000D8DB1F23FB1800221A7024E01F23FB1816
:101DC0001B781022BA18D35C98B20A23FB180021A2
:101DD000595E0823FB1800229A5E3423FB181B78F7
:101DE00000930223FFF7F4F80A23FB181B880F3334
:101DF0009AB20A23FB181A801F23FB181A781F2394
:101E0000FB1801321A701F23FA181E23FB181278D0
:101E10001B789A42D2D3C0460A23FB1800229B5E4D
:101E2000181CBD4609B090BD90B58BB002AFF860EC
:101E30000C1C101C191C0A23FB18221C1A800823D6
:101E4000FB18021C1A80FB1D0A1C1A701B23FB18AE
:101E500000221A70F868002101F0EEF8031E09D084
:101E60001A23FB1801221A70FB68802212065340C5
:101E7000FB6003E01A23FB1800221A70F86801F0D7
:101E800021FF031C7B611A23FB181B78002B19D040
:101E90007B6958420A23FB180021595E0823FB186E
:101EA00000229A5E3023FB181B7800933423FB1822
:101EB0001B7801930023FFF733FA021C1B23FB1846
:101EC0001A7017E078690A23FB180021595E08236D
:101ED000FB1800229A5E3023FB181B7800933423F2
:101EE000FB181B7801930023FFF71AFA021C1B232F
:101EF000FB181A70FB1D1B78002B00D17AE0786963
:101F000001F000FF031CF868191C01F05DFD031CC3
:101F10003B61FB1D1B78052B3BD89A00394BD3182E
:101F20001B689F463869384901F01CFC031C181CCB
:101F300001F0C8FE031CFB612BE03869334901F056
:101F400011FC031C181C01F0BDFE031CFB6120E00A
:101F500038692F4901F006FC031C181C01F0B2FE81
:101F6000031CFB6115E038692A4901F0FBFB031CE7
:101F7000181C01F0A7FE031CFB610AE03869264922
:101F800001F0F0FB031C181C01F09CFE031CFB611C
:101F9000C0461B23FB181B789BB219B20823FB1801
:101FA00000229A5E3023FB181C783423FB181B7820
:101FB00000932E20231CFFF70BF8021C1B23FB1899
:101FC0001A701B23FB181B789BB2F86919B20823FF
:101FD000FB1800229A5E3023FB181B7800933423F1
:101FE000FB181B7801930023FFF79AF9021C1B23AF
:101FF000FB181A701B23FB181B78181CBD4609B070
:1020000090BDC046B4440008000020410000C84212
:1020100000007A4400401C460050C34780B584B09D
:1020200000AF021CFB1D1A70BB1D0A1C1A700F2387
:10203000FB1800221A7018E0FB1D1B7899B20F23C1
:10204000FB181B789BB22F22D31A9BB29BB20AB209
:102050001BB2101C191C0022FEF730FF0F23FB18C7
:102060001A780F23FB1801321A700F23FA18BB1DC0
:1020700012781B789A42DFD3BD4604B080BDC046BB
:1020800080B584B000AF021CBB1D1A803B1D0A1C2A
:102090001A80BB1D00229B5E3A1D0021525E5343F5
:1020A0009B13FB60FB689AB23B1D111C01220A4086
:1020B0001A80FB685B109AB23B1D1B88D3189AB23A
:1020C000BB1D1A80BB1D1B881BB2181CBD4604B06B
:1020D00080BDC04690B593B000AFF860B960191CE0
:1020E000BB1D1A803B1D0A1C1A80BB1D00229B5E73
:1020F00001229A40131C3B623A6A8023DB009A4219
:1021000002DD01235B42C6E100237B643B6A013BA5
:10211000FB6100233B63BB1D01221A805AE03B6A2E
:10212000BB63BB6B5B10BB637A6CBB6BD218FB6988
:102130009A42F6DCBB6B013B7A6C1A40BB6BD3183E
:102140007B64BB1D00229A5E7B6C9A4200DB3BE005
:10215000BB1D00229B5E5B00FA68D2181A23FB1895
:1021600012881A80BB1D00229B5E5B00FA68D318A0
:102170007A6C5200F9688A1812881A807B6C5B00AE
:10218000FA68D3181A22BA1812881A80BB1D0022C6
:102190009B5E5B00BA68D2181823FB1812881A805D
:1021A000BB1D00229B5E5B00BA68D3187A6C52009C
:1021B000B9688A1812881A807B6C5B00BA68D318D9
:1021C0001822BA1812881A80BB1D1B8801339AB2D4
:1021D000BB1D1A80BB1D00229A5EFB699A429EDDE0
:1021E0000123BB6309237B634FE13B1D00229B5E00
:1021F000002B3ED00023FB6200233B642EE03B6CAF
:102200005B00FA68D3181B881BB2FB63FB6B002BC7
:1022100002DAFB6B5B42FB633B6C5B00BA68D21873
:10222000BB1D12881A80BB1D00229B5E002B05DAA5
:10223000BB1D1B885B429AB2BB1D1A80FB6B984A80
:10224000934205DCBB1D00229B5E954A934202DD52
:102250000123FB6206E03B6C01333B643A6C3B6A52
:102260009A42CCDBFB6A002B05D03B6B01333B630E
:1022700001E00123FB62BB6B5B007B61BB1D0022A5
:102280001A80F6E0BB1D00229A5E7B6B9A40131CFD
:10229000FB63FB6B591CFF312623FB18814A490065
:1022A0008A5A1A807F4BFA6B5200D35A9BB25B4218
:1022B0009AB22423FB181A803B1D00229B5E002B40
:1022C00007D02423FB181B885B429AB22423FB18F7
:1022D0001A80FB6A002B0FD02623FB182622BA187F
:1022E0000021525E52101A802423FB182422BA18AF
:1022F0000021525E52101A80BB1D00229B5E3B647F
:10230000ACE03A6CBB6BD318FB63FB6B5B00FA6809
:10231000D31819882623FB1800229A5E0BB2101CD2
:10232000191CFFF7ADFE031C9CB2FB6B5B00BA6887
:10233000D31819882423FB1800229A5E0BB2101CB4
:10234000191CFFF79DFE031C9BB2E31A9AB21A23D5
:10235000FB181A80FB6B5B00BA68D3181988262318
:10236000FB1800229A5E0BB2101C191CFFF788FEA6
:10237000031C9CB2FB6B5B00FA68D31819882423FA
:10238000FB1800229A5E0BB2101C191CFFF778FE96
:10239000031C9BB2E3189AB21823FB181A803B6CFB
:1023A0005B00FA68D2182A23FB1812881A803B6C4B
:1023B0005B00BA68D2182823FB1812881A80FB6ABF
:1023C000002B0FD02A23FB182A22BA180021525EB4
:1023D00052101A802823FB182822BA180021525EB6
:1023E00052101A80FB6B5B00FA68D3182A22BA18C5
:1023F00011881A22BA1812888A1A92B292B21A80D6
:10240000FB6B5B00BA68D3182822BA18118818220F
:10241000BA1812888A1A92B292B21A803B6C5B0088
:10242000FA68D3182A22BA1811881A22BA18128800
:102430008A1892B292B21A803B6C5B00BA68D318C9
:102440002822BA1811881822BA1812888A1892B24B
:1024500092B21A803A6C7B69D3183B643A6C3B6A3F
:102460009A4200DA4DE7BB1D1B8801339AB2BB1DAF
:102470001A80BB1D00229A5EBB6B9A4200DA01E70C
:102480007B6B013B7B637B69BB63BA6B3B6A9A42A4
:1024900000DAAAE63B6B181CBD4613B090BDC046DF
:1024A000FF3F00000C00002080B500AF1B4B1B4A13
:1024B000126801210A431A60184B184A52681849D9
:1024C0000A405A60154B154A126816490A401A60AC
:1024D000124B124A126814490A401A600F4B0F4AF5
:1024E000526812490A405A600C4B0C4AD26A0F21BA
:1024F0008A43DA62094B094A126B0D490A401A6392
:10250000064B064A526B01218A435A63034B002251
:102510009A6000F00FF8BD4680BDC0460010024032
:102520000CB8FFF8FFFFF6FEFFFFFBFFFFFFC0FF49
:10253000ACFEFFFF80B582B000AF00237B600023BC
:102540003B60314B304A1268802149020A431A60CD
:102550002D4B1A6880239B0213403B607B6801333C
:102560007B603B68002B04D17A68A023DB019A4290
:10257000EED1254B1A6880239B02134002D0012321
:102580003B6001E000233B603B68012B38D11F4BCF
:1025900011221A601C4B1C4A52685A601A4B1A4A84
:1025A00052685A60184B184A526819490A405A60D2
:1025B000154B154A5268882149030A435A60124B49
:1025C000114A1268802149040A431A60C0460E4B22
:1025D0001A6880239B041340F9D00B4B0A4A5268B7
:1025E00003218A435A60084B074A526802210A4372
:1025F0005A60C046044B5B680C221340082BF9D18B
:10260000BD4602B080BDC04600100240002002401E
:10261000FFFFC0FF80B586B000AF7860396000234F
:102620007B6100233B610023FB6000237B617CE036
:102630007B6901229A40131C3B613B681B683A6925
:102640001340FB60FA683B699A426BD13B681B7987
:10265000012B03D03B681B79022B34D17B689B682C
:102660007A695200111C03228A40D2431A407B68C7
:102670009A607B689A683B685B79191C7B695B0090
:1026800099400B1C1A437B689A607B689B889BB2BD
:102690007A6992B2111C01228A4092B2D24392B25C
:1026A00013409AB27B689A807B689B889AB23B6899
:1026B0009B79191C7B699BB299400B1C9BB21343FD
:1026C0009AB27B689A807B681B687A695200111CF9
:1026D00003228A40D2431A407B681A607B681A68DA
:1026E0003B681B79191C7B695B0099400B1C1A43E2
:1026F0007B681A607B68DB687A6992B252000321BA
:1027000091400A1CD2431A407B68DA607B68DA6821
:102710003B68DB79191C7B695B0099400B1C1A43F1
:102720007B68DA607B6901337B617B690F2B00D8A2
:102730007EE7BD4606B080BD80B582B000AF786050
:102740000A1CBB1C1A80BB1C1A887B689A61BD4698
:1027500002B080BD80B582B000AF78600A1CBB1C9F
:102760001A807B68BA1C12881A85BD4602B080BDEB
:1027700080B582B000AF7860081C111CBB1C021C25
:102780001A807B1C0A1C1A707B1C1B78002B04D03F
:10279000BB1C1A887B689A6103E07B68BA1C1288AC
:1027A0001A85BD4602B080BD80B584B000AF7860A8
:1027B000081C111CBB1C021C1A807B1C0A1C1A70F2
:1027C0000023FB600023BB607B1C1B78BA1C1288B3
:1027D00007210A4092009340FB60BB1C1B88DB086A
:1027E0009BB2181CBB1C1B88DB089BB21A1C7B68A5
:1027F00008329200D358BA1C128807210A4092006E
:10280000111C0F228A40D2431A40111C7B68021C03
:1028100008329200D150BB1C1B88DB089BB21A1CEB
:102820007B6808329200D258FB681343BB60BB1C24
:102830001B88DB089BB21A1C7B6808329200B968BF
:10284000D150BD4604B080BD70B58CB0051C00F001
:1028500077F80023354E041CF35601330AD0281CA8
:1028600000F0CEF8002805D0281C002100F0EEFB77
:10287000002802D1201C0CB070BD2D4B281C0393E6
:1028800000230A9301F0CEFA347806900791049061
:102890000591002C12D1E022264B1206281C0021A3
:1028A0000892099300F0C2FB002836D1012302935D
:1028B00002A800F09DF8002812D10DE000221E4B66
:1028C000281C00210892099300F0B0FB002816D1C3
:1028D00001230293022CEBD101F0A6FB212303601C
:1028E000164800F087F8089009910A9B0193002B85
:1028F00016D10898099901F0E9FA041CBAE70223F5
:102900000293022C04D002A800F072F80028ECD147
:1029100001F08AFB22230360E7E702230293F2E738
:1029200001F082FB0A9B01930360E2E7200600208E
:10293000CC440008FFFFEFC70000F0FFD4440008BC
:10294000011C70B54B0030D000283CDB234B984273
:1029500040DC234B002298422DDDC3157F3B9B18A2
:10296000DE0F4002440A981901F0CCF9051C7F20C3
:10297000801BC005204300F063F81A49061C281C80
:1029800000F0F0FE1849041C281C00F0EBFE17496B
:10299000051C301C00F0E6FE011C281C00F074FB36
:1029A000011C201C00F070FB70BDCC200021000633
:1029B00000F0E6FCF8E7081C9821C90500F0D2FEFB
:1029C00019225242C9E7081C00F0FEFF002100F066
:1029D000D7FCE9E7081C00F057FBE5E7FFFF7F7F26
:1029E000FFFF7F0080209A3EDB275435D95BDE3E17
:1029F00000207047002001497047C0460000F87F62
:102A000043005B080220002B00D17047084A0230C7
:102A10009918084A9142F8D9074A591E013891423B
:102A2000F3D9064A9446634458425841EDE7C046FC
:102A3000000080FFFFFFFF7EFEFF7F000000808020
:102A4000F8B55F4656464D464446011CF0B44B006F
:102A500000D191E0002800DAB2E09E4B984200DD00
:102A6000B5E09D4A0023904206DC081C9821C90568
:102A700000F078FE19235B42C5157F3DED1840023A
:102A8000964B440AE01880231B040340FE20FE21DD
:102A900080055840DA1520438905551900F094FF48
:102AA000231C0F335B02061C5B0A0F2B6FDD80219A
:102AB000C90500F0E9FA011C301C00F061FC8146F8
:102AC000281C01F01FF949468246484600F04AFE9C
:102AD0008346834B5946984600F044FE8149071CC3
:102AE00000F040FE804900F0CFFA391C00F03AFEB9
:102AF0007E4900F0C9FA391C00F034FE7C4900F030
:102B0000C3FA594600F02EFE7A498346381C00F07D
:102B100029FE794900F0B8FA391C00F023FE774904
:102B200000F0B2FA391C00F01DFE011C584600F0FE
:102B3000ABFAA0444346071C7148041B1C43002CFD
:102B400000DC9BE0FC21301C890500F00BFE311CF1
:102B500000F008FE041C002D57D1391C00F094FA37
:102B6000494600F0FFFD011C201C00F02DFF011C58
:102B7000301C00F029FF04E0CC200021000600F00A
:102B8000FFFB3CBC90469946A246AB46F8BD0021EF
:102B900000F04CFA00281ED00020002DF1D0281C97
:102BA00001F0B0F85749041C00F0DCFD5649051C43
:102BB000201C00F0D7FD011C281C00F065FAE0E79E
:102BC000081C00F001FF002100F0DAFBD9E7081C27
:102BD00000F05AFAD5E7311C301C00F0C3FD4B4918
:102BE000041C301C00F0BEFD011CFC20800500F020
:102BF000EBFE011C201C00F0B5FD041C002D25D1AE
:102C0000301C211C00F0E0FEBBE750463D4900F0BF
:102C1000A9FD391C051C201C00F036FA494600F0BD
:102C2000A1FD3949071C504600F09CFD011C381CD1
:102C300000F02AFA011C201C00F0C6FE311C00F036
:102C4000C3FE011C281C00F0BFFE9AE7281C01F0FF
:102C500059F82C49051C00F085FD2B49071C281C40
:102C600000F080FD011C201C00F0AEFE311C00F0C5
:102C7000ABFE011C381C00F0A7FE82E7002D1CD023
:102C80005046204900F06EFD391C041C301C00F039
:102C90009BFE494600F066FD1B49051C504600F0AE
:102CA00061FD011C281C00F08FFE311C00F08CFE21
:102CB000011C201C00F088FE63E7391C301C00F06A
:102CC00083FE494600F04EFD011C301C00F07CFEE6
:102CD00057E7C046FFFF7F7FFFFF7F0020FB4A00D2
:102CE000305CCFFF9788173E25333A3E2549923E08
:102CF000ABAA2A3F4FD01C3E298E633ECDCCCC3EA2
:102D000088C235008071313FD1F71737ABAAAA3E90
:102D1000002243088B4274D303098B425FD3030A1A
:102D20008B4244D3030B8B4228D3030C8B420DD32D
:102D3000FF22090212BA030C8B4202D312120902BB
:102D400065D0030B8B4219D300E0090AC30B8B42F9
:102D500001D3CB03C01A5241830B8B4201D38B03A7
:102D6000C01A5241430B8B4201D34B03C01A52414C
:102D7000030B8B4201D30B03C01A5241C30A8B428F
:102D800001D3CB02C01A5241830A8B4201D38B027A
:102D9000C01A5241430A8B4201D34B02C01A52411E
:102DA000030A8B4201D30B02C01A5241CDD2C30990
:102DB0008B4201D3CB01C01A524183098B4201D30C
:102DC0008B01C01A524143098B4201D34B01C01AF7
:102DD000524103098B4201D30B01C01A5241C3086F
:102DE0008B4201D3CB00C01A524183088B4201D3DE
:102DF0008B00C01A524143088B4201D34B00C01ACA
:102E00005241411A00D20146524110467047FFE735
:102E100001B5002000F0FCF802BDC0460029F7D043
:102E200003B5FFF775FF0EBC4243891A1847C04629
:102E300003460B437FD4002243088B4274D303091B
:102E40008B425FD3030A8B4244D3030B8B4228D3BC
:102E5000030C8B420DD3FF22090212BA030C8B42E2
:102E600002D31212090265D0030B8B4219D300E082
:102E7000090AC30B8B4201D3CB03C01A5241830B07
:102E80008B4201D38B03C01A5241430B8B4201D3B7
:102E90004B03C01A5241030B8B4201D30B03C01AE0
:102EA0005241C30A8B4201D3CB02C01A5241830A5A
:102EB0008B4201D38B02C01A5241430A8B4201D389
:102EC0004B02C01A5241030A8B4201D30B02C01AB3
:102ED0005241CDD2C3098B4201D3CB01C01A52411A
:102EE00083098B4201D38B01C01A524143098B42A3
:102EF00001D34B01C01A524103098B4201D30B018C
:102F0000C01A5241C3088B4201D3CB00C01A5241B0
:102F100083088B4201D38B00C01A524143088B4275
:102F200001D34B00C01A5241411A00D2014652410E
:102F3000104670475DE0CA0F00D04942031000D32D
:102F40004042534000229C4603098B422DD3030A82
:102F50008B4212D3FC22890112BA030A8B420CD392
:102F6000890192118B4208D3890192118B4204D3BB
:102F700089013AD0921100E08909C3098B4201D33B
:102F8000CB01C01A524183098B4201D38B01C01A75
:102F9000524143098B4201D34B01C01A52410309EC
:102FA0008B4201D30B01C01A5241C3088B4201D39B
:102FB000CB00C01A524183088B4201D38B00C01A48
:102FC0005241D9D243088B4201D34B00C01A52411F
:102FD000411A00D20146634652415B10104601D3AC
:102FE0004042002B00D54942704763465B1000D336
:102FF000404201B5002000F00BF802BD0029F8D0D6
:1030000003B5FFF715FF0EBC4243891A1847C046A7
:103010007047C0468446081C6146FFE71FB500F0B4
:103020005BFB002801D40021C8421FBD10B500F091
:10303000DFFA4042013010BD10B500F04DFB002812
:1030400001DB002010BD012010BDC04610B500F00E
:1030500043FB002801DD002010BD012010BDC0464B
:1030600010B500F0EFFA002801DC002010BD0120AF
:1030700010BDC04610B500F0E5FA002801DA0020C6
:1030800010BD012010BDC046F8B54A0043024400FF
:103090004E02C50F240E281C9B09120EC90FB7093A
:1030A0008D4240D0A01A002800DC84E0002A1CD108
:1030B000002F5CD15A0704D00F221A40042A00D0F6
:1030C00004338022D2041A40281C002A24D0013460
:1030D000FF2C00D17BE09B015B0AE4B25B02E405BC
:1030E0005B0A2343C0071843F8BDFF2CE2D08022BF
:1030F000D204174301261B2808DC391C20223E1C61
:10310000C140101A8640771EBE410E439B1B5A01D8
:1031100033D4281C5A07CFD1DB08FF2C1ED05B020A
:103120005B0AE4B2DAE7A11A002957DD002A3AD097
:10313000FF2CBFD08022D204174301261B2972DD49
:103140009B195A01E5D50134FF2C00D187E00121FC
:103150008A4A194013405B080B43ABE7002B36D07B
:103160008022D20313435B025B0AFF24B6E70138D7
:1031700000283FD1DB1B5A01CBD59B019E09301C97
:1031800000F034FF05388640844223DC001B1F24F6
:10319000321C431C201ADA408640131C741EA641C0
:1031A0000024334386E7002F00D183E7013900294B
:1031B00050D1DB19C5E7002820D1621CD2B2012A08
:1031C0005EDDDE1B720128D5FE1A0D1CD7E7FF2439
:1031D000002383E7694B241A33406BE7002958D159
:1031E000621CD1B201293CDDFF2A37D0FB185B08F5
:1031F000141C5FE7FF2C00D07CE75BE7002C1ED09F
:10320000FF2A23D08024E404404223431B285BDDB3
:103210000123FB1A141C0D1CADE7002EAFD10023B7
:103220000020002478E73A1CCA40944620223E1C25
:10323000511A8E406246771EBE41164380E7002B2E
:103240003ED0C0430028E4D0FF2ADFD13B1CFF243E
:103250000D1C2FE7FF2C00D06FE72BE7FF24002386
:103260005AE7002C5AD1002B7FD0002F00D121E744
:10327000DB195A0100D44CE7404A0134134019E7E6
:10328000002C15D1002B2FD1002F5DD03B1C0D1C25
:1032900010E7002C21D1002B53D0C943002904D0C2
:1032A000FF2A4BD01B2957DD0123DB19141C48E7EB
:1032B000002B22D1002F4AD03B1C0D1CFF24F9E625
:1032C0003B1C141C0D1CF5E61D1C2024C540201AB7
:1032D0008340581E83412B439BE7FF2A2ED0802436
:1032E000E40449422343DDE7002F00D1E2E6DA1B84
:1032F00050013CD5FB1A0D1CDCE6FF24002F00D149
:10330000D8E68022DB08D203134204D0FE0816421E
:1033100001D1331C0D1CDB00FF24CBE6002B0DD0AC
:10332000FF24002F00D1C5E68022DB08D203134220
:10333000F1D0FE081642EED1331CECE73B1CFF2413
:10334000B8E63B1C141CB5E6231C0020E4E68023F1
:1033500000209B04FF24DFE61E1C2024CE40611ABF
:103360008B40591E8B4133439FE73B1CA2E6131E43
:1033700000D0CEE600230020CEE6C046FFFFFFFBD4
:10338000F0B556464D465F464446F0B4430245000C
:10339000C70F83B08A465C0A2E0EB94641D0FF2E75
:1033A00026D080231B042343DC00002398469B4641
:1033B0007F3E53465B025D0A53465A00DB0F120EF6
:1033C0009A4639D0FF2A33D080231B042B43DD00DB
:1033D00000237F3A5146B21A46467940081C0192B2
:1033E0001E430F2E00D976E07E4AB6009659B746A6
:1033F000002C30D108239846063B9B46D9E7802312
:103400000021DB03FF245B02E4055B0AC9072343B9
:103410000B43181C03B03CBC90469946A246AB46F1
:10342000F0BD002C28D104239846033B9B46C0E7FF
:10343000002D1FD1022302E0002D11D10123B21A69
:1034400050464646784001921E430F2E27D86649C3
:10345000B60089598F460C239846093B9B46A8E73E
:10346000281C00F0C3FD7622431F52429D40121AD1
:103470000023AFE70323ADE7201C00F0B7FD431F97
:103480009C4076235B421E1A002398469B4690E799
:103490000025D1469B465B464846022B6FD1012151
:1034A000FF2401400023AEE77E23019A5B429B1A72
:1034B0001B2B6DDD01214B46194000240023A2E7A0
:1034C0008023DB031C4249D18023DB0323435B02BF
:1034D0005B0A391C96E763016D01AB4237D389461D
:1034E0001A2001215B1B01241E1C49005B00002ED9
:1034F00001DBAB4201D35B1B214301380028F3D130
:10350000581E83410B431D1C019C7F34002CCBDDD6
:103510006B0704D00F232B40042B00D004352B0164
:1035200004D5019A314B8032141C1D40FE2C07DD5E
:103530004B460121FF241940002364E7251CAAE71C
:1035400001214A46AB015B0AE4B211405BE7019AF4
:103550008946013A01921B200021C4E71D4207D091
:1035600023435B025B0A391C4CE700256302ABD5A1
:103570008023DB032B435B025B0A514642E7032BAC
:1035800025D0012BC0D101210024014000233AE7BE
:10359000291CD9402B1C019A9E3293405D1EAB41E1
:1035A0000B435A0704D00F221A40042A00D00433D8
:1035B0005A0105D54B46012101241940002322E779
:1035C00001214A469B015B0A114000241BE780232E
:1035D00001214A46DB032B435B020A405B0A111CB4
:1035E00010E7C046D844000818450008FFFFFFF761
:1035F000430270B542004C005D0AC30F4802120E30
:10360000460A240EC90FFF2A05D0FF2C08D001203E
:10361000A2420BD070BD0120002DFBD1FF2CF6D1B2
:103620000120002EF6D10120A242F3D1B542F1D102
:103630008B4205D0002AEDD1281C431E9841E9E7B2
:103640000020E7E7F0B543024D024A0044005E0A5D
:10365000240EC30F6D0A120EC90FFF2C0DD0FF2AC6
:1036600031D0002C0DD177427741002A23D1002D93
:1036700021D10020002F0BD107E0002E28D1FF2AF6
:1036800021D0002A05D08B4207D05842012318438D
:10369000F0BD002DF9D08B42F7D19442F5DC04DB6C
:1036A000AE42F2D80020AE42F2D25842434101204D
:1036B0005B421843ECE7002FE5D04842414101202E
:1036C00049420843E4E7002D02D1002CCBD0DAE7D1
:1036D00002204042DCE7C0464302F0B542004C0005
:1036E0005E0AC30F4802120E450A240EC90FFF2AB4
:1036F0000FD0FF2C1AD0002A10D177427741002C2E
:1037000029D0002F17D048424141012049420843A7
:103710000BE00220002E08D1FF2C07D0002C0AD18C
:10372000002D08D1584201231843F0BD0220002D7E
:10373000FBD1002AE1D08B42F4D1A242F2DC04DBBF
:10374000AE42EFD80020AE42EFD2584243410120B2
:103750005B421843E9E7002DD3D10020002FE4D1CC
:10376000E0E7C046F0B55F4656464D464446F0B4E5
:1037700045024600C40F83B00F1C6D0A360EA346E7
:1037800045D0FF2E25D080231B041D4300239A46DD
:10379000ED007F3E01937B025B0A98467800FB0FA9
:1037A000000E994640D0FF2838D0802342461B04A3
:1037B0001343DB00984600237F384A46019F3018A8
:1037C0006240411C1F430F2F69D87D4EBF00F65940
:1037D000B746002D45D108230193063B9A46DAE708
:1037E00093465346022B2FD15B46012400251C40F3
:1037F000FF236D02DB056D0AE4071D432543281CEA
:1038000003B03CBC90469946A246AB46F0BD002DA5
:103810002CD104230193033B9A46BCE743465A420A
:1038200053410322D31AC8E742460123002AC4D0D9
:10383000404600F0DBFB4246431F9A4076235B4242
:10384000181A90460023B8E7032B00D1ADE0012BF6
:1038500000D08CE05B4654461C40E4B200230025B7
:10386000C7E70C230193093B9A4694E7281C00F014
:10387000BDFB7626431F9D4000237642361A0193F6
:103880009A4688E780250024ED03FF23B1E74546EB
:10389000CB469A46A5E7454693469A46A1E7434656
:1038A0002C041B0C9C46230C444626041C1C360C82
:1038B0002F0C7443351C66467D4373437743EB18E6
:1038C000260C9E19B54203D980235B029C466744AF
:1038D00024043304240C1B199D016C1EA5419B0E6E
:1038E000360C2B43BD19AD011D432B0104D501231B
:1038F00068081D400543081C031C7F33002B2CDD8A
:10390000690704D00F212940042900D0043529017A
:1039100003D52C4B1D40031C8033FE2B17DD0124E7
:10392000FF231440002564E78020C003054209D02E
:103930004346034206D1454605436D026D0A4C4697
:10394000FF2356E705436D026D0AFF2351E701246B
:10395000AD016D0ADBB214404BE77E235B421B1ABC
:103960001B2B07DD012400231440002541E7081C20
:103970005A46C1E79E30291C8540D940681E8541C2
:103980000D436B0704D00F232B40042B00D00435CC
:103990006B0104D5012401231440002529E70124EB
:1039A000AD016D0A1440002323E78023DB031D4390
:1039B00001245B466D0223401C1C6D0AFF2318E79F
:1039C00058450008FFFFFFF7F8B54A0043024400DE
:1039D0004D02C00F240E061C9B09120EC90FAD0923
:1039E000FF2A00D175E001277940884250D0A01A03
:1039F000002800DC8FE0002A1ED1002D00D075E0E9
:103A00005A0704D00F221A40042A00D0043380221F
:103A10000120D2041A403040002A32D00134FF2C59
:103A200000D184E09B015B0AE4B25B02E4055B0A1F
:103A30002343C0071843F8BDFF2CE1D08022D204F5
:103A400015431B287ADD01255B1B5A015DD59B01BF
:103A50009F09381C00F0CAFA05388740844269DCA7
:103A6000001B1F243A1C431C201ADA408740131CF9
:103A70007C1EA74100243B43C2E7131E45D100230F
:103A80000020DB08FF2C28D05B025B0AE4B2CCE705
:103A9000A11A00295BDD002A2ED0FF2CB0D0802295
:103AA000D20415431B2974DC2F1C2022CF40511A4D
:103AB0008D40691E8D413D435B195A0125D5013466
:103AC000FF2C74D001217E4A194013405B080B4340
:103AD00096E7002D00D088E785E7002B27D08022CD
:103AE000D20313435B025B0AFF249EE701380028E0
:103AF000AAD0FF2CA5D183E7002D00D180E70139A2
:103B00000029D9D0FF2CCDD17AE75A0700D079E728
:103B100001203040B5E7002825D1621CD2B2012A2D
:103B200055DD5F1B7A012DD5EF1A0E1C91E7FF249E
:103B300000237AE7624B241A3B4061E7291C2022CC
:103B4000C140101A8540681E85410D437CE700295D
:103B500046D1621CD1B201292BDDFF2A26D0EB18F9
:103B60005B08141C4CE7002C15D0FF2A1AD08024C7
:103B7000E404404223431B284DDD0123EB1A141CAF
:103B80000E1C62E7002F00D063E700230020002412
:103B900077E7012590E7002B39D0C0430028EDD00E
:103BA000FF2AE8D12B1CFF240E1C29E7FF24002349
:103BB00067E7002C5AD1002B7FD0002D00D11FE7E2
:103BC0005B195A01A1D53E4A0134134018E7002C75
:103BD00015D1002B2FD1002D5ED02B1C0E1C0FE712
:103BE000002C21D1002B54D0C943002904D0FF2A36
:103BF0004CD01B2958DD01235B19141C5DE7002BF9
:103C000023D1002D4BD02B1C0E1CFF24F8E62B1CBF
:103C1000141C0E1CF4E61E1C2024C640201A8340EF
:103C2000581E83413343A9E7FF2A2FD08024E404A0
:103C300049422343DDE7002D00D1E1E65A1B500144
:103C400000D41AE7EB1A0E1CDAE6FF24002D00D18F
:103C5000D6E68022DB08D203134204D0ED081542D9
:103C600001D12B1C0E1CDB00FF24C9E6002B0DD05C
:103C7000FF24002D00D1C3E68022DB08D2031342CB
:103C8000F1D0ED081542EED12B1CECE72B1CFF24E4
:103C9000B6E62B1C141CB3E6231C0020F1E680239F
:103CA00000209B04FF24ECE61F1C2024CF40611A57
:103CB0008B40591E8B413B439EE72B1CA0E6C04620
:103CC000FFFFFFFB4202510A4200C30F120E002009
:103CD0007E2A0DDD9D2A0CDC802000040143952AFC
:103CE0000ADC9620821AD1400A1C58424240D01861
:103CF0007047034A9818FBE7963A91400A1CF4E78C
:103D0000FFFFFF7F70B5041E39D0C50F00D04442BD
:103D1000201C00F06BF99E23261C1B1A962B07DC37
:103D2000082801DD083884406402640AD8B21EE025
:103D3000992B0ADD0522211C121AD1400A1C011CF4
:103D40001B318E40711E8E411643052801DD421F36
:103D500096400F4C3440720704D00F221640042EB8
:103D600000D0043462010ED4A401640AD8B2640203
:103D7000C005640AED0704432C43201C70BD0025D8
:103D800000200024F3E7024B1C409F231B1AEBE7A3
:103D9000FFFFFFFB10B5041E35D000F027F99E2170
:103DA000091A962909DC082830DD021C231C083A70
:103DB00093405B025B0AC8B220E099290CDD052222
:103DC000231C121AD3401A1C031C1B339C40231CB7
:103DD0005C1EA34113431C1C052801DD431F9C40AE
:103DE0000F4B2340620704D00F221440042C00D054
:103DF00004335A010ED49B015B0AC8B25B025B0A12
:103E0000C005184310BD00200023F7E763025B0ADA
:103E1000C8B2F3E79F21024A091A1340EBE7C046F4
:103E2000FFFFFFFB4200120E511C38B5C9B243021E
:103E30005D0AC40F012915DDE02189008C466D075C
:103E40001B0B62440021281C0D0D2D052B431C4D1E
:103E500052052B40520813435B00E4075B082343E1
:103E6000191C38BD002A15D1002D1FD0281C00F0C8
:103E7000BDF80A281DDC0B232A1C1B1ADA40131C70
:103E8000021C153295400F4A1B03121A52051B0BD8
:103E9000520DD7E7002D06D080221B0B12031343CF
:103EA0006D07094ACEE7084A0023CBE7002200232A
:103EB000C8E7031C0B3B9D402B1C0025E3E7C046D5
:103EC000FFFF0F8089030000FF07000070B50B03A0
:103ED0004D00440F6D0D5B0A23436C1C6405C90F34
:103EE000C200640D012C2ADD3B4C2C19FE2C1ADC7F
:103EF000002C35DD8001451EA841DB000343520F35
:103F000013435A0704D00F221A40042A00D0043366
:103F10008022D2041A4027D00134FF2C03D09B0109
:103F20005B0AE4B201E0FF2400235B02E4055B0AC4
:103F300023435B00C9075B080B43181C70BD002DB1
:103F400006D113430ED100245B025B0AE4B2ECE716
:103F50001A43E8D08020DB0080040343FF24D0E72D
:103F600017340CDA05230024DB08FF2CECD1002BDE
:103F70002DD08022D20313435B025B0AD5E7802455
:103F8000164824042343401B1F280DDC144CA44670
:103F90006544AB401C1C131CAB405D1EAB41C240D2
:103FA000234313430024ACE71E1C0E4C641BE64065
:103FB000341C20280DD00C4884466544AB401D1CA1
:103FC0002A43531E9A41131C2343002499E70023DC
:103FD000ABE70025F4E7C04680FCFFFF9E0300002E
:103FE00082FCFFFF7E030000A2FCFFFF1C210123D7
:103FF0001B04984201D3000C10391B0A984201D3CC
:10400000000A08391B09984201D30009043902A2A9
:10401000105C40187047C046040302020101010110
:104020000000000000000000014B18687047C04607
:10403000500A002070B583073FD0541E002A3BD0A1
:10404000CEB2031C032503E0621E002C34D0141CE6
:1040500001335A1E16702B42F6D1032C24D9FF25AA
:104060000D402A0215432A0415430F2C11D9261C92
:10407000103E3609013636011A1C9B191560556031
:104080009560D56010329342F8D10F221440032C72
:104090000AD9261FB6080136B6001A1C9B1920C281
:1040A0009342FCD103221440002C05D0C9B21C1944
:1040B00019700133A342FBD170BD141C031CCCE763
:1040C00080001000000014004F00B1003B01EB0124
:1040D000C102BE03DF0425068E071B09C90A980C1E
:1040E000870E9410BE1205156617E019711C181F73
:1040F000D421A2248127702A6B2D723083339B3602
:10410000B939DB3CFF3F2343454663497B4C8C4F29
:1041100093528E557D585C5B2A5EE6608D631E6609
:104120009868F96A406D6A6F777166733575E376E2
:104130007078D9791F7B407C3D7D137EC37E4D7F97
:10414000AF7FEA7FFE7FEA7FAF7F4D7FC37E137E26
:104150003D7D407C1F7BD9797078E3763575667339
:1041600077716A6F406DF96A98681E668D63E660C4
:104170002A5E5C5B7D588E5593528C4F7B4C634915
:1041800045462343FF3FDB3CB9399B3683337230CE
:104190006B2D702A8127A224D421181F711CE019CD
:1041A00066170515BE129410870E980CC90A1B09D4
:1041B0008E072506DF04BE03C102EB013B01B100FF
:1041C0004F00140001000000000000000000005F2C
:1041D00000000007000700147F147F14242A7F2AA0
:1041E000122313086462364955225000050300006B
:1041F000001C2241000041221C0014083E08140843
:10420000083E080800503000000808080808006050
:1042100060000020100804023E5149453E00427FE4
:10422000400042615149462141454B311814127FEB
:104230001027454545393C4A494930017109050374
:104240003649494936064949291E003636000000DC
:1042500056360000081422410014141414140041AE
:104260002214080201510906324979413E7E11119A
:10427000117E7F494949363E414141227F414122D9
:104280001C7F494949417F090909013E4149497A51
:104290007F0808087F00417F41002040413F017FA7
:1042A000081422417F404040407F020C027F7F047F
:1042B00008107F3E4141413E7F090909063E4151B8
:1042C000215E7F09192946464949493101017F018B
:1042D000013F4040403F1F2040201F3F4038403FAB
:1042E00063140814630708700807615149454300C7
:1042F0007F41410002040810200041417F00040278
:104300000102044040404040000102040020545497
:1043100054787F484444383844444420384444481E
:104320007F3854545418087E0901020C5252523EF0
:104330007F0804047800447D40002040443D007F15
:104340001028440000417F40007C041804787C0859
:1043500004047838444444387C14141408081414B1
:10436000187C7C080404084854545420043F4440FA
:10437000203C4040207C1C2040201C3C4030403CE5
:1043800044281028440C5050503C4464544C440081
:104390000836410000007F00000041360800100888
:1043A0000810087846414678FF0000000030403091
:1043B0000C030000000306090C101316191C1F2221
:1043C00025282B2E313336393C3F414447494C4E4A
:1043D000515355585A5C5E60626466686A6B6D6FD3
:1043E00070717374757678797A7A7B7C7D7D7E7E48
:1043F0007E7F7F7F7F7F7F7F7E7E7E7D7D7C7B7AE1
:104400007A79787675747371706F6D6B6A686664AB
:1044100062605E5C5A585553514E4C494744413F87
:104420003C393633312E2B2825221F1C1916131028
:104430000C09060300FDFAF7F4F0EDEAE7E4E1DE2B
:10444000DBD8D5D2CFCDCAC7C4C1BFBCB9B7B4B20F
:10445000AFADABA8A6A4A2A09E9C9A989695939166
:10446000908F8D8C8B8A88878686858483838282D1
:104470008281818181818181828282838384858618
:104480008687888A8B8C8D8F9091939596989A9C2D
:104490009EA0A2A4A6A8ABADAFB2B4B7B9BCBFC131
:1044A000C4C7CACDCFD2D5D8DBDEE1E4E7EAEDF070
:1044B000F4F7FAFD921F0008241F00083A1F0008B5
:1044C000501F0008661F00087C1F00086C6F6731D2
:1044D0003066000000000000D63400089E3400085A
:1044E000BA34000892340008BA340008FE330008D9
:1044F000BA340008923400089E3400089E34000844
:10450000FE330008923400083C3500083C350008B2
:104510003C350008C03400089E3400089E34000872
:10452000863500089034000886350008FE33000800
:1045300086350008903400089E3400089E34000838
:10454000FE330008903400083C3500083C35000874
:104550003C3500086A3500089E3800089638000887
:10456000963800088E380008E0370008E037000869
:10457000843800088E380008E037000884380008C6
:10458000E03700088E380008E2370008E2370008FC
:0C459000E2370008283900084300000052
:10459C000100000000080000010000000000C9003C
:1045AC0092015B022403ED03B6047E054706100757
:1045BC00D907A1086A09320AFB0AC30B8B0C530DED
:1045CC001B0EE30EAB0F721039110012C7128E13B3
:1045DC0055141B15E115A7166D173318F818BD19CE
:1045EC00821A461B0B1CCF1C931D561E191FDC1F59
:1045FC009F2061212322E422A62367242725E72577
:10460C00A72667272628E528A329612A1E2BDB2B42
:10461C00982C542D102ECC2E862F4130FB30B431DB
:10462C006D322633DE3396344D350336B9366F375B
:10463C002438D8388C393F3AF23AA43B563C073DE3
:10464C00B73D673E163FC53F73402041CD4179428F
:10465C002543D0437A442345CC4574461C47C34775
:10466C0069480E49B349574AFA4A9D4B3F4CE04CB6
:10467C00804D204EBF4E5D4FFA4F97503351CE5167
:10468C00685201539A533254C9545F55F4558956A4
:10469C001D57B0574258D3586359F359815A0F5B81
:1046AC009C5B285CB35C3D5DC65D4F5ED65E5D5F1A
:1046BC00E25F6760EB606E61F0617162F162706382
:1046CC00EE636B64E7646265DD655666CE664567CE
:1046DC00BC673168A56819698B69FC696C6ADB6A0F
:1046EC004A6BB76B236C8E6CF86C616DC96D306E58
:1046FC00956EFA6E5E6FC06F22708270E1704071C1
:10470C009D71F9715472AE7206735E73B5730A744F
:10471C005E74B17403755475A475F37540768D761B
:10472C00D87622776B77B377F9773F788378C6782A
:10473C00087949798979C779047A417A7C7AB57A8A
:10474C00EE7A257B5C7B917BC47BF77B297C597C47
:10475C00887CB67CE27C0E7D387D617D897DB07D68
:10476C00D57DF97D1C7E3E7E5E7E7E7E9C7EB97EF6
:10477C00D47EEF7E087F207F377F4C7F617F747FF4
:10478C00867F967FA67FB47FC17FCD7FD77FE07F6A
:10479C00E87FEF7FF57FF97FFC7FFE7FFF7FFE7F59
:1047AC00FC7FF97FF57FEF7FE87FE07FD77FCD7FC0
:1047BC00C17FB47FA67F967F867F747F617F4C7F9D
:1047CC00377F207F087FEF7ED47EB97E9C7E7E7EF5
:1047DC005E7E3E7E1C7EF97DD57DB07D897D617DC2
:1047EC00387D0E7DE27CB67C887C597C297CF77BFD
:1047FC00C47B917B5C7B257BEE7AB57A7C7A417AA3
:10480C00047AC779897949790879C67883783F78A9
:10481C00F977B3776B772277D8768D764076F37508
:10482C00A47554750375B1745E740A74B5735E73B4
:10483C000673AE725472F9719D714071E1708270A1
:10484C002270C06F5E6FFA6E956E306EC96D616DC1
:10485C00F86C8E6C236CB76B4A6BDB6A6C6AFC6908
:10486C008B691969A5683168BC674567CE66566661
:10487C00DD656265E7646B64EE637063F1627162BF
:10488C00F0616E61EB606760E25F5D5FD65E4F5E0C
:10489C00C65D3D5DB35C285C9C5B0F5B815AF35934
:1048AC006359D3584258B0571D578956F4555F5524
:1048BC00C95432549A5301536852CE5133519750C4
:1048CC00FA4F5D4FBF4E204E804DE04C3F4C9D4B00
:1048DC00FA4A574AB3490E496948C3471C477446BC
:1048EC00CC4523457A44D04325437942CD412041E0
:1048FC007340C53F163F673EB73D073D563CA43B52
:10490C00F23A3F3A8C39D83824386F37B9360336F7
:10491C004D359634DE3326336D32B431FB304130B5
:10492C00862FCC2E102E542D982CDB2B1E2B612A6F
:10493C00A329E52826286727A726E7252725672406
:10494C00A623E422232261219F20DC1F191F561E5F
:10495C00931DCF1C0B1C461B821ABD19F81833185B
:10496C006D17A716E1151B1555148E13C7120012DF
:10497C0039117210AB0FE30E1B0E530D8B0CC30BC6
:10498C00FB0A320A6A09A108D907100747067E05F7
:10499C00B604ED0324035B029201C900000037FF4B
:1049AC006EFEA5FDDCFC13FC4AFB82FAB9F9F0F8AB
:1049BC0027F85FF796F6CEF505F53DF475F3ADF2F5
:1049CC00E5F11DF155F08EEFC7EE00EE39ED72EC0E
:1049DC00ABEBE5EA1FEA59E993E8CDE708E743E6D4
:1049EC007EE5BAE4F5E331E36DE2AAE1E7E024E029
:1049FC0061DF9FDEDDDD1CDD5ADC99DBD9DA19DAEB
:104A0C0059D999D8DAD71BD75DD69FD5E2D425D4FE
:104A1C0068D3ACD2F0D134D17AD0BFCF05CF4CCE45
:104A2C0093CDDACC22CC6ACBB3CAFDC947C991C8A5
:104A3C00DCC728C774C6C1C50EC55CC4AAC3F9C2FD
:104A4C0049C299C1EAC03BC08DBFE0BE33BE87BD31
:104A5C00DBBC30BC86BBDDBA34BA8CB9E4B83DB82B
:104A6C0097B7F2B64DB6A9B506B563B4C1B320B3CA
:104A7C0080B2E0B141B1A3B006B069AFCDAE32AEF9
:104A8C0098ADFFAC66ACCEAB37ABA1AA0CAA77A99C
:104A9C00E3A850A8BEA72DA79DA60DA67FA5F1A49F
:104AAC0064A4D8A34DA3C3A23AA2B1A12AA1A3A0E6
:104ABC001EA0999F159F929E109E8F9D0F9D909C5E
:104ACC00129C959B199B9E9A239AAA993299BB98F2
:104ADC004498CF975B97E796759604969495259591
:104AEC00B6944994DD93729308939F923792D09128
:104AFC006B910691A2904090DE8F7E8F1F8FC08E9F
:104B0C00638E078EAC8D528DFA8CA28C4B8CF68BEF
:104B1C00A28B4F8BFD8AAC8A5C8A0D8AC089738903
:104B2C002889DE8895884D880788C1877D873A87D4
:104B3C00F886B78677863986FC85BF8584854B8554
:104B4C001285DB84A4846F843C840984D783A78377
:104B5C0078834A831E83F282C8829F827782508236
:104B6C002B820782E481C281A28182816481478188
:104B7C002C811181F880E080C980B4809F808C806A
:104B8C007A806A805A804C803F80338029802080D4
:104B9C00188011800B80078004800280006CDC027E
:104BAC0000000000000000000102030406070809D1
:104BBC0001000000000000000000000014090020AB
:104BCC007C090020E4090020000000000000000027
:104BDC0000000000000000000000000000000000C9
:104BEC0000000000000000000000000098450008D4
:104BFC0000000000000000000000000000000000A9
:104C0C000000000000000000000000000000000098
:104C1C000000000000000000000000000000000088
:104C2C000000000000000000000000000000000078
:104C3C000000000000000000000000000000000068
:104C4C000000000000000000000000000000000058
:104C5C000000000000000000000000000000000048
:104C6C0001000000000000000E33CDAB34126DE6E5
:104C7C00ECDE05000B00000000000000000000004E
:104C8C000000000000000000000000000000000018
:104C9C000000000000000000000000000000000008
:104CAC0000000000000000000000000000000000F8
:104CBC0000000000000000000000000000000000E8
:044FEC002806002073
:0400000508000000EF
:00000001FF
